HDRBANESCO        ED  95BPAYMULP
01SCV                                9  44101                              20260201203035
0200044101                      J302755271       AGROPECUARIA LUVICA                000000142778139VES 01341021690001000182              BANESCO    20260201
0300044102                      000000000544176VES01150037404000553573          0115          V15493818        JEBER ANTONIO BARRIOS SUAREZ                                          JEBERABS@GMAIL.COM                                                                                                                                                                                       425
0300044103                      000000005384381VES01020395370000145363          0102          V13703889        FRANKLIN JOEL JIMENEZ GONZALEZ                                                                                                                                                                                                                                                 425
0300044104                      000000004374806VES01910063472163125171          0191          V24141419        JESSICA GONZALEZ                                                                                                                                                                                                                                                               425
0300044105                      000000003230525VES01020395370000679981          0102          V21562191        JOHAN ANTONIO CESAR TORREALBA                                                                                                                                                                                                                                                  425
0300044106                      000000005480539VES01150037404000553573          0115          V15493818        JEBER ANTONIO BARRIOS SUAREZ                                          JEBERABS@GMAIL.COM                                                                                                                                                                                       425
0300044107                      000000005480539VES01020395370000145363          0102          V13703889        FRANKLIN JOEL JIMENEZ GONZALEZ                                                                                                                                                                                                                                                 425
0300044108                      000000005480539VES01020395370000679981          0102          V21562191        JOHAN ANTONIO CESAR TORREALBA                                                                                                                                                                                                                                                  425
0300044109                      000000005047865VES01910063472163125171          0191          V24141419        JESSICA GONZALEZ                                                                                                                                                                                                                                                               425
0300044110                      000000000874057VES01910181902100095786          0191          V28414941        JAVIER RIVERO                                                         JAVIER26RIVERO@GMAIL.COM                                                                                                                                                                                 425
0300044111                      000000005515647VES01150037404000553573          0115          V15493818        JEBER ANTONIO BARRIOS SUAREZ                                          JEBERABS@GMAIL.COM                                                                                                                                                                                       425
0300044112                      000000000904113VES01910181902100095786          0191          V28414941        JAVIER RIVERO                                                         JAVIER26RIVERO@GMAIL.COM                                                                                                                                                                                 425
0300044113                      000000006027418VES01020395370000145363          0102          V13703889        FRANKLIN JOEL JIMENEZ GONZALEZ                                                                                                                                                                                                                                                 425
0300044114                      000000000580949VES01150037404000553573          0115          V15493818        JEBER ANTONIO BARRIOS SUAREZ                                          JEBERABS@GMAIL.COM                                                                                                                                                                                       425
0300044115                      000000005752133VES01020395370000145363          0102          V13703889        FRANKLIN JOEL JIMENEZ GONZALEZ                                                                                                                                                                                                                                                 425
0300044116                      000000003451177VES01020395370000679981          0102          V21562191        JOHAN ANTONIO CESAR TORREALBA                                                                                                                                                                                                                                                  425
0300044117                      000000004673608VES01910063472163125171          0191          V24141419        JESSICA GONZALEZ                                                                                                                                                                                                                                                               425
0300044118                      000000001626947VES01910181902100095786          0191          V28414941        JAVIER RIVERO                                                         JAVIER26RIVERO@GMAIL.COM                                                                                                                                                                                 425
0300044119                      000000006834800VES01150037404000553573          0115          V15493818        JEBER ANTONIO BARRIOS SUAREZ                                          JEBERABS@GMAIL.COM                                                                                                                                                                                       425
0300044120                      000000000658939VES01150037404000553573          0115          V15493818        JEBER ANTONIO BARRIOS SUAREZ                                          JEBERABS@GMAIL.COM                                                                                                                                                                                       425
0300044121                      000000006532027VES01020395370000145363          0102          V13703889        FRANKLIN JOEL JIMENEZ GONZALEZ                                                                                                                                                                                                                                                 425
0300044122                      000000005307272VES01910063472163125171          0191          V24141419        JESSICA GONZALEZ                                                                                                                                                                                                                                                               425
0300044123                      000000002869310VES01020395370000679981          0102          V21562191        JOHAN ANTONIO CESAR TORREALBA                                                                                                                                                                                                                                                  425
0300044124                      000000003499300VES01910181902100095786          0191          V28414941        JAVIER RIVERO                                                         JAVIER26RIVERO@GMAIL.COM                                                                                                                                                                                 425
0300044125                      000000006251785VES01150037404000553573          0115          V15493818        JEBER ANTONIO BARRIOS SUAREZ                                          JEBERABS@GMAIL.COM                                                                                                                                                                                       425
0300044126                      000000006251785VES01020395370000145363          0102          V13703889        FRANKLIN JOEL JIMENEZ GONZALEZ                                                                                                                                                                                                                                                 425
0300044127                      000000006251785VES01020395370000679981          0102          V21562191        JOHAN ANTONIO CESAR TORREALBA                                                                                                                                                                                                                                                  425
0300044128                      000000006251785VES01910063472163125171          0191          V24141419        JESSICA GONZALEZ                                                                                                                                                                                                                                                               425
0300044129                      000000005910361VES01150037404000553573          0115          V15493818        JEBER ANTONIO BARRIOS SUAREZ                                          JEBERABS@GMAIL.COM                                                                                                                                                                                       425
0300044130                      000000005910361VES01020395370000145363          0102          V13703889        FRANKLIN JOEL JIMENEZ GONZALEZ                                                                                                                                                                                                                                                 425
0300044131                      000000008546010VES01150037404000553573          0115          V15493818        JEBER ANTONIO BARRIOS SUAREZ                                          JEBERABS@GMAIL.COM                                                                                                                                                                                       425
0300044132                      000000007273200VES01910181902100095786          0191          V28414941        JAVIER RIVERO                                                         JAVIER26RIVERO@GMAIL.COM                                                                                                                                                                                 425
06000000000000001000000000000031000000142778139
